{
	"FeeCollector.sol": {
		"FeeCollector": {
			"abi": [
				{
					"inputs": [],
					"stateMutability": "nonpayable",
					"type": "constructor"
				},
				{
					"inputs": [],
					"name": "balance",
					"outputs": [
						{
							"internalType": "uint256",
							"name": "",
							"type": "uint256"
						}
					],
					"stateMutability": "view",
					"type": "function"
				},
				{
					"inputs": [],
					"name": "owner",
					"outputs": [
						{
							"internalType": "address",
							"name": "",
							"type": "address"
						}
					],
					"stateMutability": "view",
					"type": "function"
				},
				{
					"inputs": [
						{
							"internalType": "uint256",
							"name": "amount",
							"type": "uint256"
						},
						{
							"internalType": "address payable",
							"name": "destAddr",
							"type": "address"
						}
					],
					"name": "withdraw",
					"outputs": [],
					"stateMutability": "nonpayable",
					"type": "function"
				},
				{
					"stateMutability": "payable",
					"type": "receive"
				}
			],
			"devdoc": {
				"kind": "dev",
				"methods": {},
				"version": 1
			},
			"evm": {
				"assembly": "    /* \"FeeCollector.sol\":60:438  contract FeeCollector {\r... */\n  mstore(0x40, 0x80)\n    /* \"FeeCollector.sol\":147:197  constructor(){\r... */\n  callvalue\n  dup1\n  iszero\n  tag_1\n  jumpi\n  0x00\n  dup1\n  revert\ntag_1:\n  pop\n    /* \"FeeCollector.sol\":179:189  msg.sender */\n  caller\n    /* \"FeeCollector.sol\":171:176  owner */\n  0x00\n  dup1\n    /* \"FeeCollector.sol\":171:189  owner = msg.sender */\n  0x0100\n  exp\n  dup2\n  sload\n  dup2\n  0xffffffffffffffffffffffffffffffffffffffff\n  mul\n  not\n  and\n  swap1\n  dup4\n  0xffffffffffffffffffffffffffffffffffffffff\n  and\n  mul\n  or\n  swap1\n  sstore\n  pop\n    /* \"FeeCollector.sol\":60:438  contract FeeCollector {\r... */\n  dataSize(sub_0)\n  dup1\n  dataOffset(sub_0)\n  0x00\n  codecopy\n  0x00\n  return\nstop\n\nsub_0: assembly {\n        /* \"FeeCollector.sol\":60:438  contract FeeCollector {\r... */\n      mstore(0x40, 0x80)\n      jumpi(tag_1, lt(calldatasize, 0x04))\n      shr(0xe0, calldataload(0x00))\n      dup1\n      0xf714ce\n      eq\n      tag_3\n      jumpi\n      dup1\n      0x8da5cb5b\n      eq\n      tag_4\n      jumpi\n      dup1\n      0xb69ef8a8\n      eq\n      tag_5\n      jumpi\n      jump(tag_2)\n    tag_1:\n      jumpi(tag_2, calldatasize)\n        /* \"FeeCollector.sol\":258:267  msg.value */\n      callvalue\n        /* \"FeeCollector.sol\":247:254  balance */\n      0x01\n      0x00\n        /* \"FeeCollector.sol\":247:267  balance += msg.value */\n      dup3\n      dup3\n      sload\n      tag_8\n      swap2\n      swap1\n      tag_9\n      jump\t// in\n    tag_8:\n      swap3\n      pop\n      pop\n      dup2\n      swap1\n      sstore\n      pop\n        /* \"FeeCollector.sol\":60:438  contract FeeCollector {\r... */\n      stop\n    tag_2:\n      0x00\n      dup1\n      revert\n        /* \"FeeCollector.sol\":283:431  function withdraw(uint amount,address payable destAddr)public{\r... */\n    tag_3:\n      callvalue\n      dup1\n      iszero\n      tag_10\n      jumpi\n      0x00\n      dup1\n      revert\n    tag_10:\n      pop\n      tag_11\n      0x04\n      dup1\n      calldatasize\n      sub\n      dup2\n      add\n      swap1\n      tag_12\n      swap2\n      swap1\n      tag_13\n      jump\t// in\n    tag_12:\n      tag_14\n      jump\t// in\n    tag_11:\n      stop\n        /* \"FeeCollector.sol\":89:109  address public owner */\n    tag_4:\n      callvalue\n      dup1\n      iszero\n      tag_15\n      jumpi\n      0x00\n      dup1\n      revert\n    tag_15:\n      pop\n      tag_16\n      tag_17\n      jump\t// in\n    tag_16:\n      mload(0x40)\n      tag_18\n      swap2\n      swap1\n      tag_19\n      jump\t// in\n    tag_18:\n      mload(0x40)\n      dup1\n      swap2\n      sub\n      swap1\n      return\n        /* \"FeeCollector.sol\":116:138  uint256 public balance */\n    tag_5:\n      callvalue\n      dup1\n      iszero\n      tag_20\n      jumpi\n      0x00\n      dup1\n      revert\n    tag_20:\n      pop\n      tag_21\n      tag_22\n      jump\t// in\n    tag_21:\n      mload(0x40)\n      tag_23\n      swap2\n      swap1\n      tag_24\n      jump\t// in\n    tag_23:\n      mload(0x40)\n      dup1\n      swap2\n      sub\n      swap1\n      return\n        /* \"FeeCollector.sol\":283:431  function withdraw(uint amount,address payable destAddr)public{\r... */\n    tag_14:\n        /* \"FeeCollector.sol\":379:384  owner */\n      0x00\n      dup1\n      sload\n      swap1\n      0x0100\n      exp\n      swap1\n      div\n      0xffffffffffffffffffffffffffffffffffffffff\n      and\n        /* \"FeeCollector.sol\":365:384  msg.sender == owner */\n      0xffffffffffffffffffffffffffffffffffffffff\n      and\n        /* \"FeeCollector.sol\":365:375  msg.sender */\n      caller\n        /* \"FeeCollector.sol\":365:384  msg.sender == owner */\n      0xffffffffffffffffffffffffffffffffffffffff\n      and\n      eq\n        /* \"FeeCollector.sol\":357:411  require(msg.sender == owner,\"Only owner can withdraw\") */\n      tag_26\n      jumpi\n      mload(0x40)\n      0x08c379a000000000000000000000000000000000000000000000000000000000\n      dup2\n      mstore\n      0x04\n      add\n      tag_27\n      swap1\n      tag_28\n      jump\t// in\n    tag_27:\n      mload(0x40)\n      dup1\n      swap2\n      sub\n      swap1\n      revert\n    tag_26:\n        /* \"FeeCollector.sol\":283:431  function withdraw(uint amount,address payable destAddr)public{\r... */\n      pop\n      pop\n      jump\t// out\n        /* \"FeeCollector.sol\":89:109  address public owner */\n    tag_17:\n      0x00\n      dup1\n      sload\n      swap1\n      0x0100\n      exp\n      swap1\n      div\n      0xffffffffffffffffffffffffffffffffffffffff\n      and\n      dup2\n      jump\t// out\n        /* \"FeeCollector.sol\":116:138  uint256 public balance */\n    tag_22:\n      sload(0x01)\n      dup2\n      jump\t// out\n        /* \"#utility.yul\":7:162   */\n    tag_30:\n        /* \"#utility.yul\":61:66   */\n      0x00\n        /* \"#utility.yul\":99:105   */\n      dup2\n        /* \"#utility.yul\":86:106   */\n      calldataload\n        /* \"#utility.yul\":77:106   */\n      swap1\n      pop\n        /* \"#utility.yul\":115:156   */\n      tag_32\n        /* \"#utility.yul\":150:155   */\n      dup2\n        /* \"#utility.yul\":115:156   */\n      tag_33\n      jump\t// in\n    tag_32:\n        /* \"#utility.yul\":7:162   */\n      swap3\n      swap2\n      pop\n      pop\n      jump\t// out\n        /* \"#utility.yul\":168:307   */\n    tag_34:\n        /* \"#utility.yul\":214:219   */\n      0x00\n        /* \"#utility.yul\":252:258   */\n      dup2\n        /* \"#utility.yul\":239:259   */\n      calldataload\n        /* \"#utility.yul\":230:259   */\n      swap1\n      pop\n        /* \"#utility.yul\":268:301   */\n      tag_36\n        /* \"#utility.yul\":295:300   */\n      dup2\n        /* \"#utility.yul\":268:301   */\n      tag_37\n      jump\t// in\n    tag_36:\n        /* \"#utility.yul\":168:307   */\n      swap3\n      swap2\n      pop\n      pop\n      jump\t// out\n        /* \"#utility.yul\":313:803   */\n    tag_13:\n        /* \"#utility.yul\":389:395   */\n      0x00\n        /* \"#utility.yul\":397:403   */\n      dup1\n        /* \"#utility.yul\":446:448   */\n      0x40\n        /* \"#utility.yul\":434:443   */\n      dup4\n        /* \"#utility.yul\":425:432   */\n      dup6\n        /* \"#utility.yul\":421:444   */\n      sub\n        /* \"#utility.yul\":417:449   */\n      slt\n        /* \"#utility.yul\":414:533   */\n      iszero\n      tag_39\n      jumpi\n        /* \"#utility.yul\":452:531   */\n      tag_40\n      tag_41\n      jump\t// in\n    tag_40:\n        /* \"#utility.yul\":414:533   */\n    tag_39:\n        /* \"#utility.yul\":572:573   */\n      0x00\n        /* \"#utility.yul\":597:650   */\n      tag_42\n        /* \"#utility.yul\":642:649   */\n      dup6\n        /* \"#utility.yul\":633:639   */\n      dup3\n        /* \"#utility.yul\":622:631   */\n      dup7\n        /* \"#utility.yul\":618:640   */\n      add\n        /* \"#utility.yul\":597:650   */\n      tag_34\n      jump\t// in\n    tag_42:\n        /* \"#utility.yul\":587:650   */\n      swap3\n      pop\n        /* \"#utility.yul\":543:660   */\n      pop\n        /* \"#utility.yul\":699:701   */\n      0x20\n        /* \"#utility.yul\":725:786   */\n      tag_43\n        /* \"#utility.yul\":778:785   */\n      dup6\n        /* \"#utility.yul\":769:775   */\n      dup3\n        /* \"#utility.yul\":758:767   */\n      dup7\n        /* \"#utility.yul\":754:776   */\n      add\n        /* \"#utility.yul\":725:786   */\n      tag_30\n      jump\t// in\n    tag_43:\n        /* \"#utility.yul\":715:786   */\n      swap2\n      pop\n        /* \"#utility.yul\":670:796   */\n      pop\n        /* \"#utility.yul\":313:803   */\n      swap3\n      pop\n      swap3\n      swap1\n      pop\n      jump\t// out\n        /* \"#utility.yul\":809:927   */\n    tag_44:\n        /* \"#utility.yul\":896:920   */\n      tag_46\n        /* \"#utility.yul\":914:919   */\n      dup2\n        /* \"#utility.yul\":896:920   */\n      tag_47\n      jump\t// in\n    tag_46:\n        /* \"#utility.yul\":891:894   */\n      dup3\n        /* \"#utility.yul\":884:921   */\n      mstore\n        /* \"#utility.yul\":809:927   */\n      pop\n      pop\n      jump\t// out\n        /* \"#utility.yul\":933:1299   */\n    tag_48:\n        /* \"#utility.yul\":1075:1078   */\n      0x00\n        /* \"#utility.yul\":1096:1163   */\n      tag_50\n        /* \"#utility.yul\":1160:1162   */\n      0x17\n        /* \"#utility.yul\":1155:1158   */\n      dup4\n        /* \"#utility.yul\":1096:1163   */\n      tag_51\n      jump\t// in\n    tag_50:\n        /* \"#utility.yul\":1089:1163   */\n      swap2\n      pop\n        /* \"#utility.yul\":1172:1265   */\n      tag_52\n        /* \"#utility.yul\":1261:1264   */\n      dup3\n        /* \"#utility.yul\":1172:1265   */\n      tag_53\n      jump\t// in\n    tag_52:\n        /* \"#utility.yul\":1290:1292   */\n      0x20\n        /* \"#utility.yul\":1285:1288   */\n      dup3\n        /* \"#utility.yul\":1281:1293   */\n      add\n        /* \"#utility.yul\":1274:1293   */\n      swap1\n      pop\n        /* \"#utility.yul\":933:1299   */\n      swap2\n      swap1\n      pop\n      jump\t// out\n        /* \"#utility.yul\":1305:1423   */\n    tag_54:\n        /* \"#utility.yul\":1392:1416   */\n      tag_56\n        /* \"#utility.yul\":1410:1415   */\n      dup2\n        /* \"#utility.yul\":1392:1416   */\n      tag_57\n      jump\t// in\n    tag_56:\n        /* \"#utility.yul\":1387:1390   */\n      dup3\n        /* \"#utility.yul\":1380:1417   */\n      mstore\n        /* \"#utility.yul\":1305:1423   */\n      pop\n      pop\n      jump\t// out\n        /* \"#utility.yul\":1429:1651   */\n    tag_19:\n        /* \"#utility.yul\":1522:1526   */\n      0x00\n        /* \"#utility.yul\":1560:1562   */\n      0x20\n        /* \"#utility.yul\":1549:1558   */\n      dup3\n        /* \"#utility.yul\":1545:1563   */\n      add\n        /* \"#utility.yul\":1537:1563   */\n      swap1\n      pop\n        /* \"#utility.yul\":1573:1644   */\n      tag_59\n        /* \"#utility.yul\":1641:1642   */\n      0x00\n        /* \"#utility.yul\":1630:1639   */\n      dup4\n        /* \"#utility.yul\":1626:1643   */\n      add\n        /* \"#utility.yul\":1617:1623   */\n      dup5\n        /* \"#utility.yul\":1573:1644   */\n      tag_44\n      jump\t// in\n    tag_59:\n        /* \"#utility.yul\":1429:1651   */\n      swap3\n      swap2\n      pop\n      pop\n      jump\t// out\n        /* \"#utility.yul\":1657:2076   */\n    tag_28:\n        /* \"#utility.yul\":1823:1827   */\n      0x00\n        /* \"#utility.yul\":1861:1863   */\n      0x20\n        /* \"#utility.yul\":1850:1859   */\n      dup3\n        /* \"#utility.yul\":1846:1864   */\n      add\n        /* \"#utility.yul\":1838:1864   */\n      swap1\n      pop\n        /* \"#utility.yul\":1910:1919   */\n      dup2\n        /* \"#utility.yul\":1904:1908   */\n      dup2\n        /* \"#utility.yul\":1900:1920   */\n      sub\n        /* \"#utility.yul\":1896:1897   */\n      0x00\n        /* \"#utility.yul\":1885:1894   */\n      dup4\n        /* \"#utility.yul\":1881:1898   */\n      add\n        /* \"#utility.yul\":1874:1921   */\n      mstore\n        /* \"#utility.yul\":1938:2069   */\n      tag_61\n        /* \"#utility.yul\":2064:2068   */\n      dup2\n        /* \"#utility.yul\":1938:2069   */\n      tag_48\n      jump\t// in\n    tag_61:\n        /* \"#utility.yul\":1930:2069   */\n      swap1\n      pop\n        /* \"#utility.yul\":1657:2076   */\n      swap2\n      swap1\n      pop\n      jump\t// out\n        /* \"#utility.yul\":2082:2304   */\n    tag_24:\n        /* \"#utility.yul\":2175:2179   */\n      0x00\n        /* \"#utility.yul\":2213:2215   */\n      0x20\n        /* \"#utility.yul\":2202:2211   */\n      dup3\n        /* \"#utility.yul\":2198:2216   */\n      add\n        /* \"#utility.yul\":2190:2216   */\n      swap1\n      pop\n        /* \"#utility.yul\":2226:2297   */\n      tag_63\n        /* \"#utility.yul\":2294:2295   */\n      0x00\n        /* \"#utility.yul\":2283:2292   */\n      dup4\n        /* \"#utility.yul\":2279:2296   */\n      add\n        /* \"#utility.yul\":2270:2276   */\n      dup5\n        /* \"#utility.yul\":2226:2297   */\n      tag_54\n      jump\t// in\n    tag_63:\n        /* \"#utility.yul\":2082:2304   */\n      swap3\n      swap2\n      pop\n      pop\n      jump\t// out\n        /* \"#utility.yul\":2391:2560   */\n    tag_51:\n        /* \"#utility.yul\":2475:2486   */\n      0x00\n        /* \"#utility.yul\":2509:2515   */\n      dup3\n        /* \"#utility.yul\":2504:2507   */\n      dup3\n        /* \"#utility.yul\":2497:2516   */\n      mstore\n        /* \"#utility.yul\":2549:2553   */\n      0x20\n        /* \"#utility.yul\":2544:2547   */\n      dup3\n        /* \"#utility.yul\":2540:2554   */\n      add\n        /* \"#utility.yul\":2525:2554   */\n      swap1\n      pop\n        /* \"#utility.yul\":2391:2560   */\n      swap3\n      swap2\n      pop\n      pop\n      jump\t// out\n        /* \"#utility.yul\":2566:2871   */\n    tag_9:\n        /* \"#utility.yul\":2606:2609   */\n      0x00\n        /* \"#utility.yul\":2625:2645   */\n      tag_68\n        /* \"#utility.yul\":2643:2644   */\n      dup3\n        /* \"#utility.yul\":2625:2645   */\n      tag_57\n      jump\t// in\n    tag_68:\n        /* \"#utility.yul\":2620:2645   */\n      swap2\n      pop\n        /* \"#utility.yul\":2659:2679   */\n      tag_69\n        /* \"#utility.yul\":2677:2678   */\n      dup4\n        /* \"#utility.yul\":2659:2679   */\n      tag_57\n      jump\t// in\n    tag_69:\n        /* \"#utility.yul\":2654:2679   */\n      swap3\n      pop\n        /* \"#utility.yul\":2813:2814   */\n      dup3\n        /* \"#utility.yul\":2745:2811   */\n      0xffffffffffffffffffffffffffffffffffffffffffffffffffffffffffffffff\n        /* \"#utility.yul\":2741:2815   */\n      sub\n        /* \"#utility.yul\":2738:2739   */\n      dup3\n        /* \"#utility.yul\":2735:2816   */\n      gt\n        /* \"#utility.yul\":2732:2839   */\n      iszero\n      tag_70\n      jumpi\n        /* \"#utility.yul\":2819:2837   */\n      tag_71\n      tag_72\n      jump\t// in\n    tag_71:\n        /* \"#utility.yul\":2732:2839   */\n    tag_70:\n        /* \"#utility.yul\":2863:2864   */\n      dup3\n        /* \"#utility.yul\":2860:2861   */\n      dup3\n        /* \"#utility.yul\":2856:2865   */\n      add\n        /* \"#utility.yul\":2849:2865   */\n      swap1\n      pop\n        /* \"#utility.yul\":2566:2871   */\n      swap3\n      swap2\n      pop\n      pop\n      jump\t// out\n        /* \"#utility.yul\":2877:2973   */\n    tag_47:\n        /* \"#utility.yul\":2914:2921   */\n      0x00\n        /* \"#utility.yul\":2943:2967   */\n      tag_74\n        /* \"#utility.yul\":2961:2966   */\n      dup3\n        /* \"#utility.yul\":2943:2967   */\n      tag_75\n      jump\t// in\n    tag_74:\n        /* \"#utility.yul\":2932:2967   */\n      swap1\n      pop\n        /* \"#utility.yul\":2877:2973   */\n      swap2\n      swap1\n      pop\n      jump\t// out\n        /* \"#utility.yul\":2979:3083   */\n    tag_76:\n        /* \"#utility.yul\":3024:3031   */\n      0x00\n        /* \"#utility.yul\":3053:3077   */\n      tag_78\n        /* \"#utility.yul\":3071:3076   */\n      dup3\n        /* \"#utility.yul\":3053:3077   */\n      tag_75\n      jump\t// in\n    tag_78:\n        /* \"#utility.yul\":3042:3077   */\n      swap1\n      pop\n        /* \"#utility.yul\":2979:3083   */\n      swap2\n      swap1\n      pop\n      jump\t// out\n        /* \"#utility.yul\":3089:3215   */\n    tag_75:\n        /* \"#utility.yul\":3126:3133   */\n      0x00\n        /* \"#utility.yul\":3166:3208   */\n      0xffffffffffffffffffffffffffffffffffffffff\n        /* \"#utility.yul\":3159:3164   */\n      dup3\n        /* \"#utility.yul\":3155:3209   */\n      and\n        /* \"#utility.yul\":3144:3209   */\n      swap1\n      pop\n        /* \"#utility.yul\":3089:3215   */\n      swap2\n      swap1\n      pop\n      jump\t// out\n        /* \"#utility.yul\":3221:3298   */\n    tag_57:\n        /* \"#utility.yul\":3258:3265   */\n      0x00\n        /* \"#utility.yul\":3287:3292   */\n      dup2\n        /* \"#utility.yul\":3276:3292   */\n      swap1\n      pop\n        /* \"#utility.yul\":3221:3298   */\n      swap2\n      swap1\n      pop\n      jump\t// out\n        /* \"#utility.yul\":3304:3484   */\n    tag_72:\n        /* \"#utility.yul\":3352:3429   */\n      0x4e487b7100000000000000000000000000000000000000000000000000000000\n        /* \"#utility.yul\":3349:3350   */\n      0x00\n        /* \"#utility.yul\":3342:3430   */\n      mstore\n        /* \"#utility.yul\":3449:3453   */\n      0x11\n        /* \"#utility.yul\":3446:3447   */\n      0x04\n        /* \"#utility.yul\":3439:3454   */\n      mstore\n        /* \"#utility.yul\":3473:3477   */\n      0x24\n        /* \"#utility.yul\":3470:3471   */\n      0x00\n        /* \"#utility.yul\":3463:3478   */\n      revert\n        /* \"#utility.yul\":3613:3730   */\n    tag_41:\n        /* \"#utility.yul\":3722:3723   */\n      0x00\n        /* \"#utility.yul\":3719:3720   */\n      dup1\n        /* \"#utility.yul\":3712:3724   */\n      revert\n        /* \"#utility.yul\":3736:3909   */\n    tag_53:\n        /* \"#utility.yul\":3876:3901   */\n      0x4f6e6c79206f776e65722063616e207769746864726177000000000000000000\n        /* \"#utility.yul\":3872:3873   */\n      0x00\n        /* \"#utility.yul\":3864:3870   */\n      dup3\n        /* \"#utility.yul\":3860:3874   */\n      add\n        /* \"#utility.yul\":3853:3902   */\n      mstore\n        /* \"#utility.yul\":3736:3909   */\n      pop\n      jump\t// out\n        /* \"#utility.yul\":3915:4053   */\n    tag_33:\n        /* \"#utility.yul\":3996:4028   */\n      tag_87\n        /* \"#utility.yul\":4022:4027   */\n      dup2\n        /* \"#utility.yul\":3996:4028   */\n      tag_76\n      jump\t// in\n    tag_87:\n        /* \"#utility.yul\":3989:3994   */\n      dup2\n        /* \"#utility.yul\":3986:4029   */\n      eq\n        /* \"#utility.yul\":3976:4047   */\n      tag_88\n      jumpi\n        /* \"#utility.yul\":4043:4044   */\n      0x00\n        /* \"#utility.yul\":4040:4041   */\n      dup1\n        /* \"#utility.yul\":4033:4045   */\n      revert\n        /* \"#utility.yul\":3976:4047   */\n    tag_88:\n        /* \"#utility.yul\":3915:4053   */\n      pop\n      jump\t// out\n        /* \"#utility.yul\":4059:4181   */\n    tag_37:\n        /* \"#utility.yul\":4132:4156   */\n      tag_90\n        /* \"#utility.yul\":4150:4155   */\n      dup2\n        /* \"#utility.yul\":4132:4156   */\n      tag_57\n      jump\t// in\n    tag_90:\n        /* \"#utility.yul\":4125:4130   */\n      dup2\n        /* \"#utility.yul\":4122:4157   */\n      eq\n        /* \"#utility.yul\":4112:4175   */\n      tag_91\n      jumpi\n        /* \"#utility.yul\":4171:4172   */\n      0x00\n        /* \"#utility.yul\":4168:4169   */\n      dup1\n        /* \"#utility.yul\":4161:4173   */\n      revert\n        /* \"#utility.yul\":4112:4175   */\n    tag_91:\n        /* \"#utility.yul\":4059:4181   */\n      pop\n      jump\t// out\n\n    auxdata: 0xa2646970667358221220f7e978a2fa0ebf04593a20a3421696cdf1277ccd50da795ead55c0dd0c311b8964736f6c63430008070033\n}\n",
				"bytecode": {
					"linkReferences": {},
					"object": "608060405234801561001057600080fd5b50336000806101000a81548173ffffffffffffffffffffffffffffffffffffffff021916908373ffffffffffffffffffffffffffffffffffffffff16021790555061040e806100606000396000f3fe6080604052600436106100375760003560e01c8062f714ce1461005c5780638da5cb5b14610085578063b69ef8a8146100b057610057565b3661005757346001600082825461004e91906102a9565b92505081905550005b600080fd5b34801561006857600080fd5b50610083600480360381019061007e91906101c1565b6100db565b005b34801561009157600080fd5b5061009a61016d565b6040516100a79190610242565b60405180910390f35b3480156100bc57600080fd5b506100c5610191565b6040516100d2919061027d565b60405180910390f35b60008054906101000a900473ffffffffffffffffffffffffffffffffffffffff1673ffffffffffffffffffffffffffffffffffffffff163373ffffffffffffffffffffffffffffffffffffffff1614610169576040517f08c379a00000000000000000000000000000000000000000000000000000000081526004016101609061025d565b60405180910390fd5b5050565b60008054906101000a900473ffffffffffffffffffffffffffffffffffffffff1681565b60015481565b6000813590506101a6816103aa565b92915050565b6000813590506101bb816103c1565b92915050565b600080604083850312156101d8576101d761037c565b5b60006101e6858286016101ac565b92505060206101f785828601610197565b9150509250929050565b61020a816102ff565b82525050565b600061021d601783610298565b915061022882610381565b602082019050919050565b61023c81610343565b82525050565b60006020820190506102576000830184610201565b92915050565b6000602082019050818103600083015261027681610210565b9050919050565b60006020820190506102926000830184610233565b92915050565b600082825260208201905092915050565b60006102b482610343565b91506102bf83610343565b9250827fffffffffffffffffffffffffffffffffffffffffffffffffffffffffffffffff038211156102f4576102f361034d565b5b828201905092915050565b600061030a82610323565b9050919050565b600061031c82610323565b9050919050565b600073ffffffffffffffffffffffffffffffffffffffff82169050919050565b6000819050919050565b7f4e487b7100000000000000000000000000000000000000000000000000000000600052601160045260246000fd5b600080fd5b7f4f6e6c79206f776e65722063616e207769746864726177000000000000000000600082015250565b6103b381610311565b81146103be57600080fd5b50565b6103ca81610343565b81146103d557600080fd5b5056fea2646970667358221220f7e978a2fa0ebf04593a20a3421696cdf1277ccd50da795ead55c0dd0c311b8964736f6c63430008070033",
					"opcodes": "PUSH1 0x80 PUSH1 0x40 MSTORE CALLVALUE DUP1 ISZERO PUSH2 0x10 JUMPI PUSH1 0x0 DUP1 REVERT JUMPDEST POP CALLER PUSH1 0x0 DUP1 PUSH2 0x100 EXP DUP2 SLOAD DUP2 PUSH20 0xFFFFFFFFFFFFFFFFFFFFFFFFFFFFFFFFFFFFFFFF MUL NOT AND SWAP1 DUP4 PUSH20 0xFFFFFFFFFFFFFFFFFFFFFFFFFFFFFFFFFFFFFFFF AND MUL OR SWAP1 SSTORE POP PUSH2 0x40E DUP1 PUSH2 0x60 PUSH1 0x0 CODECOPY PUSH1 0x0 RETURN INVALID PUSH1 0x80 PUSH1 0x40 MSTORE PUSH1 0x4 CALLDATASIZE LT PUSH2 0x37 JUMPI PUSH1 0x0 CALLDATALOAD PUSH1 0xE0 SHR DUP1 PUSH3 0xF714CE EQ PUSH2 0x5C JUMPI DUP1 PUSH4 0x8DA5CB5B EQ PUSH2 0x85 JUMPI DUP1 PUSH4 0xB69EF8A8 EQ PUSH2 0xB0 JUMPI PUSH2 0x57 JUMP JUMPDEST CALLDATASIZE PUSH2 0x57 JUMPI CALLVALUE PUSH1 0x1 PUSH1 0x0 DUP3 DUP3 SLOAD PUSH2 0x4E SWAP2 SWAP1 PUSH2 0x2A9 JUMP JUMPDEST SWAP3 POP POP DUP2 SWAP1 SSTORE POP STOP JUMPDEST PUSH1 0x0 DUP1 REVERT JUMPDEST CALLVALUE DUP1 ISZERO PUSH2 0x68 JUMPI PUSH1 0x0 DUP1 REVERT JUMPDEST POP PUSH2 0x83 PUSH1 0x4 DUP1 CALLDATASIZE SUB DUP2 ADD SWAP1 PUSH2 0x7E SWAP2 SWAP1 PUSH2 0x1C1 JUMP JUMPDEST PUSH2 0xDB JUMP JUMPDEST STOP JUMPDEST CALLVALUE DUP1 ISZERO PUSH2 0x91 JUMPI PUSH1 0x0 DUP1 REVERT JUMPDEST POP PUSH2 0x9A PUSH2 0x16D JUMP JUMPDEST PUSH1 0x40 MLOAD PUSH2 0xA7 SWAP2 SWAP1 PUSH2 0x242 JUMP JUMPDEST PUSH1 0x40 MLOAD DUP1 SWAP2 SUB SWAP1 RETURN JUMPDEST CALLVALUE DUP1 ISZERO PUSH2 0xBC JUMPI PUSH1 0x0 DUP1 REVERT JUMPDEST POP PUSH2 0xC5 PUSH2 0x191 JUMP JUMPDEST PUSH1 0x40 MLOAD PUSH2 0xD2 SWAP2 SWAP1 PUSH2 0x27D JUMP JUMPDEST PUSH1 0x40 MLOAD DUP1 SWAP2 SUB SWAP1 RETURN JUMPDEST PUSH1 0x0 DUP1 SLOAD SWAP1 PUSH2 0x100 EXP SWAP1 DIV PUSH20 0xFFFFFFFFFFFFFFFFFFFFFFFFFFFFFFFFFFFFFFFF AND PUSH20 0xFFFFFFFFFFFFFFFFFFFFFFFFFFFFFFFFFFFFFFFF AND CALLER PUSH20 0xFFFFFFFFFFFFFFFFFFFFFFFFFFFFFFFFFFFFFFFF AND EQ PUSH2 0x169 JUMPI PUSH1 0x40 MLOAD PUSH32 0x8C379A000000000000000000000000000000000000000000000000000000000 DUP2 MSTORE PUSH1 0x4 ADD PUSH2 0x160 SWAP1 PUSH2 0x25D JUMP JUMPDEST PUSH1 0x40 MLOAD DUP1 SWAP2 SUB SWAP1 REVERT JUMPDEST POP POP JUMP JUMPDEST PUSH1 0x0 DUP1 SLOAD SWAP1 PUSH2 0x100 EXP SWAP1 DIV PUSH20 0xFFFFFFFFFFFFFFFFFFFFFFFFFFFFFFFFFFFFFFFF AND DUP2 JUMP JUMPDEST PUSH1 0x1 SLOAD DUP2 JUMP JUMPDEST PUSH1 0x0 DUP2 CALLDATALOAD SWAP1 POP PUSH2 0x1A6 DUP2 PUSH2 0x3AA JUMP JUMPDEST SWAP3 SWAP2 POP POP JUMP JUMPDEST PUSH1 0x0 DUP2 CALLDATALOAD SWAP1 POP PUSH2 0x1BB DUP2 PUSH2 0x3C1 JUMP JUMPDEST SWAP3 SWAP2 POP POP JUMP JUMPDEST PUSH1 0x0 DUP1 PUSH1 0x40 DUP4 DUP6 SUB SLT ISZERO PUSH2 0x1D8 JUMPI PUSH2 0x1D7 PUSH2 0x37C JUMP JUMPDEST JUMPDEST PUSH1 0x0 PUSH2 0x1E6 DUP6 DUP3 DUP7 ADD PUSH2 0x1AC JUMP JUMPDEST SWAP3 POP POP PUSH1 0x20 PUSH2 0x1F7 DUP6 DUP3 DUP7 ADD PUSH2 0x197 JUMP JUMPDEST SWAP2 POP POP SWAP3 POP SWAP3 SWAP1 POP JUMP JUMPDEST PUSH2 0x20A DUP2 PUSH2 0x2FF JUMP JUMPDEST DUP3 MSTORE POP POP JUMP JUMPDEST PUSH1 0x0 PUSH2 0x21D PUSH1 0x17 DUP4 PUSH2 0x298 JUMP JUMPDEST SWAP2 POP PUSH2 0x228 DUP3 PUSH2 0x381 JUMP JUMPDEST PUSH1 0x20 DUP3 ADD SWAP1 POP SWAP2 SWAP1 POP JUMP JUMPDEST PUSH2 0x23C DUP2 PUSH2 0x343 JUMP JUMPDEST DUP3 MSTORE POP POP JUMP JUMPDEST PUSH1 0x0 PUSH1 0x20 DUP3 ADD SWAP1 POP PUSH2 0x257 PUSH1 0x0 DUP4 ADD DUP5 PUSH2 0x201 JUMP JUMPDEST SWAP3 SWAP2 POP POP JUMP JUMPDEST PUSH1 0x0 PUSH1 0x20 DUP3 ADD SWAP1 POP DUP2 DUP2 SUB PUSH1 0x0 DUP4 ADD MSTORE PUSH2 0x276 DUP2 PUSH2 0x210 JUMP JUMPDEST SWAP1 POP SWAP2 SWAP1 POP JUMP JUMPDEST PUSH1 0x0 PUSH1 0x20 DUP3 ADD SWAP1 POP PUSH2 0x292 PUSH1 0x0 DUP4 ADD DUP5 PUSH2 0x233 JUMP JUMPDEST SWAP3 SWAP2 POP POP JUMP JUMPDEST PUSH1 0x0 DUP3 DUP3 MSTORE PUSH1 0x20 DUP3 ADD SWAP1 POP SWAP3 SWAP2 POP POP JUMP JUMPDEST PUSH1 0x0 PUSH2 0x2B4 DUP3 PUSH2 0x343 JUMP JUMPDEST SWAP2 POP PUSH2 0x2BF DUP4 PUSH2 0x343 JUMP JUMPDEST SWAP3 POP DUP3 PUSH32 0xFFFFFFFFFFFFFFFFFFFFFFFFFFFFFFFFFFFFFFFFFFFFFFFFFFFFFFFFFFFFFFFF SUB DUP3 GT ISZERO PUSH2 0x2F4 JUMPI PUSH2 0x2F3 PUSH2 0x34D JUMP JUMPDEST JUMPDEST DUP3 DUP3 ADD SWAP1 POP SWAP3 SWAP2 POP POP JUMP JUMPDEST PUSH1 0x0 PUSH2 0x30A DUP3 PUSH2 0x323 JUMP JUMPDEST SWAP1 POP SWAP2 SWAP1 POP JUMP JUMPDEST PUSH1 0x0 PUSH2 0x31C DUP3 PUSH2 0x323 JUMP JUMPDEST SWAP1 POP SWAP2 SWAP1 POP JUMP JUMPDEST PUSH1 0x0 PUSH20 0xFFFFFFFFFFFFFFFFFFFFFFFFFFFFFFFFFFFFFFFF DUP3 AND SWAP1 POP SWAP2 SWAP1 POP JUMP JUMPDEST PUSH1 0x0 DUP2 SWAP1 POP SWAP2 SWAP1 POP JUMP JUMPDEST PUSH32 0x4E487B7100000000000000000000000000000000000000000000000000000000 PUSH1 0x0 MSTORE PUSH1 0x11 PUSH1 0x4 MSTORE PUSH1 0x24 PUSH1 0x0 REVERT JUMPDEST PUSH1 0x0 DUP1 REVERT JUMPDEST PUSH32 0x4F6E6C79206F776E65722063616E207769746864726177000000000000000000 PUSH1 0x0 DUP3 ADD MSTORE POP JUMP JUMPDEST PUSH2 0x3B3 DUP2 PUSH2 0x311 JUMP JUMPDEST DUP2 EQ PUSH2 0x3BE JUMPI PUSH1 0x0 DUP1 REVERT JUMPDEST POP JUMP JUMPDEST PUSH2 0x3CA DUP2 PUSH2 0x343 JUMP JUMPDEST DUP2 EQ PUSH2 0x3D5 JUMPI PUSH1 0x0 DUP1 REVERT JUMPDEST POP JUMP INVALID LOG2 PUSH5 0x6970667358 0x22 SLT KECCAK256 0xF7 0xE9 PUSH25 0xA2FA0EBF04593A20A3421696CDF1277CCD50DA795EAD55C0DD 0xC BALANCE SHL DUP10 PUSH5 0x736F6C6343 STOP ADDMOD SMOD STOP CALLER "
				},
				"gasEstimates": {
					"creation": {
						"codeDepositCost": "207600",
						"executionCost": "24517",
						"totalCost": "232117"
					},
					"external": {
						"balance()": "2451",
						"owner()": "2511",
						"withdraw(uint256,address)": "3058"
					}
				},
				"methodIdentifiers": {
					"balance()": "b69ef8a8",
					"owner()": "8da5cb5b",
					"withdraw(uint256,address)": "00f714ce"
				}
			},
			"storageLayout": {
				"storage": [
					{
						"astId": 3,
						"contract": "FeeCollector.sol:FeeCollector",
						"label": "owner",
						"offset": 0,
						"slot": "0",
						"type": "t_address"
					},
					{
						"astId": 5,
						"contract": "FeeCollector.sol:FeeCollector",
						"label": "balance",
						"offset": 0,
						"slot": "1",
						"type": "t_uint256"
					}
				],
				"types": {
					"t_address": {
						"encoding": "inplace",
						"label": "address",
						"numberOfBytes": "20"
					},
					"t_uint256": {
						"encoding": "inplace",
						"label": "uint256",
						"numberOfBytes": "32"
					}
				}
			},
			"userdoc": {
				"kind": "user",
				"methods": {},
				"version": 1
			}
		}
	}
}